:020000040000FA
:04000000E0EF72F0CB
:10E57800450ED5EC72F01200016E01C083FF120047
:10E58800010EC26E0B0EC16E010EC06E1200670E38
:10E59800AF6EAC9CAC8AAC98AC84AB8EAB9CAB88B1
:10E5A8001200016E01C0ADFFACA2DDEF72F0DFEF2B
:10E5B80072F0D8EF72F0120000EE5EF00B0EEE6A09
:10E5C800E806FDE1000EF86E00019CEF7DF00150B9
:10E5D8000302F3CF05F0F4CF06F001500402F35024
:10E5E800062602500302F350062605C001F006C0B5
:10E5F80002F01200056E84820550C0EC72F084941B
:10E60800000E026E030E016E40EC73F08492000E51
:10E61800026E030E016E40EC73F084821200949433
:10E62800959A0F0EBD6ECA849E929EA21EEF73F03D
:10E6380020EF73F019EF73F09E929EA226EF73F00D
:10E6480028EF73F021EF73F0120001C003F002C04D
:10E6580004F0D89004320332D890043203320350C5
:10E66800BE6E01C003F0030E0316033ABD50031833
:10E67800CF0B0318BD6E1200000E046E000E036E61
:10E688004DEF73F0C80E04000400E82EFCD7034ACF
:10E69800042A0150035C02500458D8A056EF73F0C6
:10E6A80058EF73F046EF73F0120084928494000ED2
:10E6B800026E140E016E40EC73F08482380EFEEC8C
:10E6C80072F0000E026E050E016E40EC73F0380E0B
:10E6D800FEEC72F0000E026E010E016E40EC73F05B
:10E6E800380EFEEC72F0080EFEEC72F00F0EFEEC27
:10E6F80072F0010EFEEC72F0380EFEEC72F0800E35
:10E70800FEEC72F01200000E096E000E0A6E000E8A
:10E718000B6E000E0C6E01A094EF73F096EF73F081
:10E728009EEF73F00550092606500A2207500B2267
:10E7380008500C22D8900536063607360836D89089
:10E748000432033202320132015002100310041065
:10E75800D8A4B1EF73F0B3EF73F08FEF73F009C083
:10E7680001F00AC002F00BC003F00CC004F0120064
:10E77800000E0B6E000E0A6E5E0E0A24D96E000E95
:10E788000B20DA6E270E066E100E056EF8EC73F08D
:10E79800DF6E5E0E0A24D96E000E0B20DA6EDF5093
:10E7A800C0EC72F05E0E0A24D96E000E0B20DA6EF1
:10E7B8002A0EDE18D8A4E3EF73F0E5EF73F0E7EF65
:10E7C80073F0F7EF73F00A4A0B2A0BBEF5EF73F0FC
:10E7D8000B5009E10A0E0A5CD8A0F5EF73F0F7EFC9
:10E7E80073F0C0EF73F01200000E086E000E076E93
:10E7F800ABB401EF74F003EF74F00AEF74F0ABA25E
:10E8080008EF74F00AEF74F018EF74F0AB98AB8867
:10E8180018EF74F0000E026E140E016E40EC73F0E7
:10E82800140E0726000E08220550075C06500858EB
:10E83800D8A021EF74F023EF74F02CEF74F005509A
:10E848000610D8A42AEF74F02CEF74F033EF74F0AC
:10E858009EAA31EF74F033EF74F00EEF74F09EAAB5
:10E8680038EF74F03AEF74F03DEF74F0AE503EEFCD
:10E8780074F0A50E1200076E4EEF74F0010EC26E12
:10E8880067EF74F0050EC26E67EF74F0090EC26E82
:10E8980067EF74F00750036E046A0450000AD8B496
:10E8A80058EF74F067EF74F00350000AD8B442EFE1
:10E8B80074F0010AD8B446EF74F0030AD8B44AEFEA
:10E8C80074F067EF74F0C282C2B26DEF74F06FEF4C
:10E8D80074F068EF74F0C3CF03F0060E046ED8909E
:10E8E8000332042E73EF74F00350C4CF05F0066AA8
:10E8F800D89005360636D890053606360510016ECE
:10E908000650026E12001C6E1C50016E026A036AE9
:10E91800046ACB501A6E1B6AD8901A361B36D890E8
:10E928001A361B36030E1A12000E1B121AC005F0F7
:10E938001BC006F0000E06BEFF0E076E086E87ECC1
:10E9480073F001C00DF002C00EF003C00FF004C058
:10E9580010F0FF0E116E000E126E000E136E000EF8
:10E96800146ED0EC74F00DC01DF00EC01EF01DC06A
:10E978001AF01EC01BF0D8901B321A32D8901B32E6
:10E988001A321A50BE6E1DC01AF0030E1A161A3823
:10E99800F00B0F09BD6E1200000E156E000E166EFC
:10E9A800000E176E000E186E11501210131014106E
:10E9B800D8B4E1EF74F0E3EF74F019EF75F0010EDD
:10E9C800196EEDEF74F0D8901136123613361436EE
:10E9D800192A14AEF2EF74F0F4EF74F0E7EF74F064
:10E9E800D890153616361736183611500D5C125059
:10E9F8000E5813500F5814501058D8A006EF75F041
:10EA080008EF75F011EF75F011500D5E12500E5AA7
:10EA180013500F5A1450105A1580D89014321332CC
:10EA280012321132192EF4EF74F015C00DF016C021
:10EA38000EF017C00FF018C010F01200000E056E8F
:10EA4800C00E066E7F0E076E440E086E33C001F0CE
:10EA580034C002F035C003F036C004F027EC79F07A
:10EA680001C01AF002C01BF003C01CF004C01DF066
:10EA7800000E1E6E000E1F6EC80E206E420E216E16
:10EA88005AEC77F01AC037F01BC038F01CC039F0C8
:10EA98001DC03AF0000E056E000E066E000E076EE1
:10EAA8003F0E086E37C001F038C002F039C003F0DD
:10EAB8003AC004F03CEC7BF001C011F002C012F047
:10EAC80003C013F004C014F0FDEC75F011C03BF066
:10EAD80012C03CF03CBE78EF75F0040E3C5CD8A048
:10EAE80078EF75F07AEF75F07DEF75F0030E3C6EF8
:10EAF8003B683BC001F03CC002F029EC73F0120007
:10EB0800000EBD6E9484958A8294839A000EBE6E20
:10EB1800CA94000E0D6E090E0E6E3D0E0F6E000E9D
:10EB2800106E1A501C6E1B501D6E1E6A1F6A020E54
:10EB3800D8901C361D361E361F36E82E9CEF75F011
:10EB48001CC011F01DC012F01EC013F01FC014F03D
:10EB5800D0EC74F00DC020F00EC021F02104D8B024
:10EB6800B8EF75F0BAEF75F0C0EF75F0FC0ECA1685
:10EB780020C0CBFFFAEF75F020C01CF021C01DF0BB
:10EB8800D8901D321C32D8901D321C321D04D8B0CA
:10EB9800D0EF75F0D2EF75F0E6EF75F0CA50FC0BC8
:10EBA8000109CA6E020E20241C6E000E21201D6E63
:10EBB800D8901D321C32D8901D321C321C50CB6E9E
:10EBC800FAEF75F0080E20241C6E000E21201D6E31
:10EBD800040E1E6ED8901D321C321E2EEEEF75F0FC
:10EBE8001C50CB6ECA50FC0B0209CA6E870ECA169F
:10EBF8001200133414341A6E1A50D8A406EF76F0A3
:10EC080008EF76F012EF76F0000E116E000E126E1D
:10EC1800000E136E000E146E7FEF76F011C015F023
:10EC280012C016F013C017F014C018F0200E22EF0F
:10EC380076F0D8901832173216321532E82E1DEFBA
:10EC480076F01550196E138EFF0E1116FF0E121660
:10EC5800FF0E1316000E1416960E1A5E1ABE39EF22
:10EC680076F037EF76F04FEF76F01A50800A970F6C
:10EC7800D8B041EF76F043EF76F045EF76F008EF45
:10EC880076F0D89014321332123211321A3E45EF10
:10EC980076F067EF76F01F0E1A6455EF76F057EFAF
:10ECA80076F05FEF76F008EF76F0D89011361236EE
:10ECB800133614361A061A50D8A465EF76F067EFA3
:10ECC80076F059EF76F01950D8B46DEF76F06FEF13
:10ECD80076F077EF76F0141E131E121E116C000EDC
:10ECE80012221322142211C011F012C012F013C004
:10ECF80013F014C014F01200096E0950D8B487EF4D
:10ED080076F089EF76F0ABEF76F004BE90EF76F010
:10ED18008EEF76F0ABEF76F001C005F002C006F09A
:10ED280003C007F004C008F0051E061E071E081ED3
:10ED3800052A000E06220722082205C00BF006C08D
:10ED48000CF007C00DF008C00EF0B3EF76F001C06C
:10ED58000BF002C00CF003C00DF004C00EF001501F
:10ED6800021003100410D8A4BCEF76F0BEEF76F0C2
:10ED7800C8EF76F0000E016E000E026E000E036EF4
:10ED8800000E046E59EF77F0960E0A6ED2EF76F009
:10ED98000A2AD8900E320D320C320B32000E0B14A8
:10EDA800056E000E0C14066E000E0D14076EFE0E96
:10EDB8000E14086E0550061007100810D8A4E7EFC7
:10EDC80076F0E9EF76F0CCEF76F0F7EF76F00A2AF6
:10EDD800010E0B26000E0C220D220E22D8900E32A8
:10EDE8000D320C320B32000E0B14056E000E0C1493
:10EDF800066E000E0D14076EFF0E0E14086E0550F9
:10EE0800061007100810D8A40CEF77F00EEF77F073
:10EE1800EBEF76F016EF77F00A06D8900B360C3643
:10EE28000D360E360DBE1BEF77F01DEF77F025EF90
:10EE380077F0020E0A6023EF77F025EF77F010EFF6
:10EE480077F00AB02AEF77F02CEF77F02DEF77F014
:10EE58000D9ED8900A320AC005F0066A076A086A49
:10EE680005C008F0076A066A056A05500B120650C5
:10EE78000C1207500D1208500E120950D8B447EF63
:10EE880077F049EF77F051EF77F004BE50EF77F065
:10EE98004EEF77F051EF77F00E8E0BC001F00CC0FB
:10EEA80002F00DC003F00EC004F012001D50800BDC
:10EEB8002A6E1D501D24316E1CAE65EF77F067EF8A
:10EEC80077F068EF77F031803150D8B46EEF77F093
:10EED80070EF77F085EF77F03128D8A476EF77F0E8
:10EEE80078EF77F080EF77F0000E1A6E000E1B6E49
:10EEF800000E1C6E000E1D6E1C8E000E1D6E8DEF1A
:10EF080077F0000E1A6E000E1B6E000E1C6E000EBF
:10EF18001D6E2150800B2A1A21502124326E20AEFA
:10EF280098EF77F09AEF77F09BEF77F032803250D6
:10EF3800D8B4A1EF77F0A3EF77F0B8EF77F03228E5
:10EF4800D8A4A9EF77F0ABEF77F0B3EF77F0000E26
:10EF58001E6E000E1F6E000E206E000E216E208E9B
:10EF6800000E216EC0EF77F0000E1E6E000E1F6EB1
:10EF7800000E206E000E216E1E501F102010211052
:10EF8800D8A4C9EF77F0CBEF77F0E3EF77F0000E76
:10EF98001A6E000E1B6E000E1C6E000E1D6E800E8B
:10EFA8001C127F0E1D122A501D121AC01AF01BC007
:10EFB8001BF01CC01CF01DC01DF026EF79F031506D
:10EFC800D8A4E9EF77F0EBEF77F0F5EF77F0000EE4
:10EFD8001A6E000E1B6E000E1C6E000E1D6E26EFC4
:10EFE80079F0325031C022F0236A225E000E235A93
:10EFF8007F0E22242B6E000E23202C6E1AC026F0C2
:10F008001BC027F01CC028F01DC029F0000E1A6E86
:10F01800000E1B6E000E1C6E000E1D6E000E2D6E77
:10F02800000E2E6E000E2F6E000E306E000E326E29
:10F0380056EF78F03250D8B424EF78F026EF78F015
:10F048003DEF78F0D8902636273628362936D890DE
:10F058001A361B361C361D3630AE35EF78F037EFD2
:10F0680078F038EF78F01A80D8902D362E362F3673
:10F0780030361E50265C1F502758205028582150E3
:10F088002958D8A04AEF78F04CEF78F055EF78F08F
:10F09800308C1E50265E1F50275A2050285A215067
:10F0A800295A322A190E32645CEF78F05EEF78F054
:10F0B8001EEF78F02650271028102910D8B467EFD3
:10F0C80078F069EF78F081EF78F02D8081EF78F0B3
:10F0D800D8901A361B361C361D3630AE76EF78F0CF
:10F0E80078EF78F079EF78F01A80D8902D362E36B0
:10F0F8002F3630362B06D8A02C061CAE86EF78F0BB
:10F1080088EF78F06CEF78F0000E326E30AE8FEF4B
:10F1180078F091EF78F0B5EF78F0FF0E2D14226EAD
:10F12800FF0E2E14236EFF0E2F14246E7F0E301444
:10F13800256E2250231024102510D8B4A6EF78F09D
:10F14800A8EF78F0ACEF78F0010E326EB5EF78F0FA
:10F158001AA0B1EF78F0B3EF78F0B5EF78F0A8EF38
:10F1680078F03250D8B4BBEF78F0BDEF78F0E1EF2B
:10F1780078F0010E1A26000E1B221C221D221DA04B
:10F18800C8EF78F0CAEF78F0E1EF78F01AC022F013
:10F198001BC023F01CC024F01DC025F025342532E7
:10F1A80024322332223222C01AF023C01BF024C09A
:10F1B8001CF025C01DF02B4A2C2A2CBEECEF78F051
:10F1C8002C5008E12B28D8A0ECEF78F0EEEF78F07F
:10F1D800F9EF78F0000E2C6E2B68000E1A6E000EF8
:10F1E8001B6E000E1C6E000E1D6E2CBE06EF79F015
:10F1F8002C5006E12B04D8B004EF79F006EF79F033
:10F2080014EF79F0000E2C6E000E2B6E000E1A6EA5
:10F21800000E1B6E000E1C6E000E1D6E000E2A6E78
:10F228002BC031F031A01BEF79F01DEF79F020EF02
:10F2380079F01C8E21EF79F01C9ED89031301D6E2C
:10F24800D7EF77F012000450800B0D6E04500424A1
:10F25800136E03AE32EF79F034EF79F035EF79F0D1
:10F2680013801350D8B43BEF79F03DEF79F050EFAD
:10F2780079F01328D8A443EF79F045EF79F04DEFF2
:10F2880079F0000E016E000E026E000E036E000E85
:10F29800046E038E58EF79F0000E016E000E026EB8
:10F2A800000E036E000E046E0850800B0D1A0850F5
:10F2B8000824126E07AE63EF79F065EF79F066EF18
:10F2C80079F012801250D8B46CEF79F06EEF79F0C3
:10F2D80081EF79F01228D8A474EF79F076EF79F0FD
:10F2E8007EEF79F0000E056E000E066E000E076EBA
:10F2F800000E086E078E89EF79F0000E056E000E7D
:10F30800066E000E076E000E086E1250D8B48FEF0E
:10F3180079F091EF79F099EF79F01350D8A497EF3D
:10F3280079F099EF79F0A3EF79F0000E016E000EF5
:10F33800026E000E036E000E046E3BEF7BF007506A
:10F348000102F3CF18F0F4CF19F018500E6E0F6ABF
:10F35800106A116A1950146E156A166A176A0650EF
:10F368000202F3CF18F0F4CF19F018500E26000E51
:10F378000F221022112219501426000E15221622CF
:10F38800172205500302F3CF18F0F4CF19F01850E4
:10F398000E26000E0F221022112219501426000EDC
:10F3A80015221622172210C011F00FC010F00EC03F
:10F3B8000FF00E6A05500202F3CF18F0F4CF19F0DF
:10F3C80018500E2619500F22000E1022000E11227E
:10F3D80006500102F3CF18F0F4CF19F018500E269A
:10F3E80019500F22000E1022000E112210C011F029
:10F3F8000FC010F00EC00FF00E6A05500102F3CFD7
:10F4080018F0F4CF19F018500E2619500F22000EDC
:10F418001022000E112207500202F3CF18F0F4CF89
:10F4280019F01850142619501522000E1622000E35
:10F43800172206500302F3CF18F0F4CF19F0185032
:10F44800142619501522000E1622000E17220750F6
:10F458000302F3CF18F0F4CF19F01850096E1950C1
:10F468000A6E0B6A0C6A0BC00CF00AC00BF009C0DC
:10F478000AF0096A095014260A5015220B50162260
:10F488000C5017220EC009F00FC00AF010C00BF084
:10F4980011C00CF0190E56EF7AF0D8900C320B32DE
:10F4A8000A320932E82E51EF7AF0095014260A5030
:10F4B80015220B5016220C50172210C011F00FC045
:10F4C80010F00EC00FF00E6A125013C009F00A6A4D
:10F4D8000926000E0A22820E0924186EFF0E0A2041
:10F4E800196E8CEF7AF0D890143615361636173612
:10F4F80011AE81EF7AF083EF7AF084EF7AF014801E
:10F50800D8900E360F36103611361806D8A01906C0
:10F5180016AE91EF7AF093EF7AF077EF7AF0000E6B
:10F52800126E11AE9AEF7AF09CEF7AF0C0EF7AF093
:10F53800FF0E0E14096EFF0E0F140A6EFF0E101444
:10F548000B6E7F0E11140C6E09500A100B100C1064
:10F55800D8B4B1EF7AF0B3EF7AF0B7EF7AF0010EE2
:10F56800126EC0EF7AF014A0BCEF7AF0BEEF7AF01A
:10F57800C0EF7AF0B3EF7AF01250D8B4C6EF7AF051
:10F58800C8EF7AF0ECEF7AF0010E1426000E15227F
:10F598001622172217A0D3EF7AF0D5EF7AF0ECEF06
:10F5A8007AF014C009F015C00AF016C00BF017C0A5
:10F5B8000CF00C340C320B320A32093209C014F048
:10F5C8000AC015F00BC016F00CC017F0184A192A1B
:10F5D80019BEF7EF7AF0195008E11828D8A0F7EF0C
:10F5E8007AF0F9EF7AF003EF7BF0000E146E000E5C
:10F5F800156E800E166E7F0E176E31EF7BF019BEFA
:10F6080010EF7BF0195006E11804D8B00EEF7BF02C
:10F6180010EF7BF01CEF7BF0000E146E000E156EE1
:10F62800000E166E000E176E000E0D6E31EF7BF099
:10F6380018C013F0FF0E1416FF0E15167F0E1616BF
:10F64800000E171613A02BEF7BF02DEF7BF02EEF9B
:10F658007BF0168ED8901330176E0D50171214C009
:10F6680001F015C002F016C003F017C004F0120034
:10F678000450800B0D6E045004240F6E03AE47EF48
:10F688007BF049EF7BF04AEF7BF00F800F50D8B446
:10F6980050EF7BF052EF7BF067EF7BF00F28D8A498
:10F6A80058EF7BF05AEF7BF062EF7BF0000E016EB3
:10F6B800000E026E000E036E000E046E038E000E26
:10F6C800046E6FEF7BF0000E016E000E026E000EEE
:10F6D800036E000E046E0850800B0E6E0D500E184F
:10F6E800D8B479EF7BF07BEF7BF07CEF7BF00D8C6F
:10F6F800085008240E6E07AE84EF7BF086EF7BF08F
:10F7080087EF7BF00E800E50D8B48DEF7BF08FEF33
:10F718007BF0A4EF7BF00E28D8A495EF7BF097EF51
:10F728007BF09FEF7BF0000E056E000E066E000E5C
:10F73800076E000E086E078E000E086EACEF7BF0A9
:10F74800000E056E000E066E000E076E000E086EA7
:10F758000F500E5CD8B0B3EF7BF0B5EF7BF0DCEF69
:10F768007BF00DACBAEF7BF0BCEF7BF0BEEF7BF02B
:10F77800800E0D1A0FC010F00EC00FF010C00EF062
:10F7880001C010F005C001F010C005F002C010F073
:10F7980006C002F010C006F003C010F007C003F066
:10F7A80010C007F004C010F008C004F010C008F042
:10F7B800000E106E0F500EC009F00A6A095E000EA6
:10F7C8000A5A0ABEF1EF7BF00A5009E11A0E095CE9
:10F7D800D8A0F1EF7BF0F3EF7BF02AEF7CF001503B
:10F7E800021003100410D8A4FCEF7BF0FFEF7BF0AD
:10F7F800010E00EF7CF0000E106E000E016E000E80
:10F80800026E000E036E000E046E0EC00FF033EF92
:10F818007CF010A012EF7CF014EF7CF01AEF7CF073
:10F82800D89010300109106E1CEF7CF0D89010327F
:10F8380001A021EF7CF023EF7CF024EF7CF0108E08
:10F84800043404320332023201320F2A0E500F5CA4
:10F85800D8A031EF7CF033EF7CF00DEF7CF00DBCDD
:10F8680038EF7CF03AEF7CF07AEF7CF00F50D8A4B8
:10F8780040EF7CF042EF7CF04CEF7CF0000E016E24
:10F88800000E026E000E036E000E046E9BEF7DF0FC
:10F898000550012606500222075003220850042270
:10F8A80004A059EF7CF05BEF7CF007EF7DF010A02F
:10F8B80060EF7CF062EF7CF068EF7CF0D89010305D
:10F8C8000109106E6AEF7CF0D890103201A06FEF3A
:10F8D8007CF071EF7CF072EF7CF0108E043404320F
:10F8E8000332023201320F2A07EF7DF00550015C26
:10F8F80006500258075003580450800A096E0850F1
:10F90800800A0958D8B08BEF7CF08DEF7CF0B8EF07
:10F918007CF00150055C096E025006580A6E0350CF
:10F9280007580B6E045008580C6EFF0E0924016E20
:10F93800FF0E0A20026EFF0E0B20036EFF0E0C2036
:10F94800046E800E0D1A106C1050D8A4AEEF7CF027
:10F95800B0EF7CF0C0EF7CF0010E0126000E022211
:10F9680003220422C0EF7CF00550015E0650025AC3
:10F978000750035A0850045A01500210031004108B
:10F98800D8A4C9EF7CF0CBEF7CF000EF7DF01050ED
:10F99800D8A4D1EF7CF0D3EF7CF000EF7DF0000E1F
:10F9A800016E000E026E000E036E000E046E9BEFD9
:10F9B8007DF0D890013602360336043610AEE7EFF4
:10F9C8007CF0E9EF7CF0EAEF7CF0018010A0EFEF2B
:10F9D8007CF0F1EF7CF0F5EF7CF0D8801036F7EF93
:10F9E8007CF0D89010360F50D8B4FDEF7CF0FFEFC4
:10F9F8007CF000EF7DF00F0603AE05EF7DF007EF1A
:10FA08007DF0DDEF7CF0000E0E6E10AE0EEF7DF097
:10FA180010EF7DF028EF7DF010C009F07F0E091679
:10FA2800D8B419EF7DF01BEF7DF01FEF7DF0010ECC
:10FA38000E6E28EF7DF001A024EF7DF026EF7DF01B
:10FA480028EF7DF01BEF7DF00E50D8B42EEF7DF03F
:10FA580030EF7DF05BEF7DF0010E0126000E0222F3
:10FA68000322042204A03BEF7DF03DEF7DF05BEF25
:10FA78007DF001C009F002C00AF003C00BF004C019
:10FA88000CF00C340C320B320A32093209C001F086
:10FA98000AC002F00BC003F00CC004F00F28D8B461
:10FAA80058EF7DF05AEF7DF05BEF7DF00F2A0F28BD
:10FAB800D8B461EF7DF063EF7DF06BEF7DF00F5010
:10FAC800D8A469EF7DF06BEF7DF07DEF7DF0000E3F
:10FAD800016E000E026E000E036E000E046E0F50D3
:10FAE800D8A479EF7DF07BEF7DF07DEF7DF0000EFF
:10FAF8000D6E0FA082EF7DF084EF7DF087EF7DF033
:10FB0800038E88EF7DF0039ED8900F30046E0DAE03
:10FB180090EF7DF092EF7DF093EF7DF0048E01C0C1
:10FB280001F002C002F003C003F004C004F01200A8
:10FB3800000E956ECBEC72F059EC73F0530EC0ECDE
:10FB480072F0000E1B6E010E1A6E84EC75F0040E36
:10FB580087EC74F013EC73F0C4EC72F0BCEC73F047
:10FB6800240E5E18D8A4BBEF7DF0BDEF7DF09EEFAC
:10FB78007EF0520E5F18D8A4C4EF7DF0C6EF7DF07A
:10FB8800A2EF7EF0410E6018D8A4CDEF7DF0CFEF44
:10FB98007DF0DBEF7DF061503FEC74F001C03FF089
:10FBA80002C040F03F50D5EC72F0B2EF7DF0440E49
:10FBB8006018D8A4E2EF7DF0E4EF7DF09EEF7EF0D0
:10FBC80061C041F0426A000E5B6E6BEF7EF0000E82
:10FBD8004B6E8350D8B4F3EF7DF0F5EF7DF0F7EF7F
:10FBE8007DF0010E4B6E4BC05BF099EF7EF0000E7E
:10FBF8004C6E8350D8B403EF7EF005EF7EF007EF2C
:10FC08007EF0010E4C6E4CC05BF099EF7EF0000E5A
:10FC18004D6E8350D8B413EF7EF015EF7EF017EFDA
:10FC28007EF0010E4D6E4DC05BF099EF7EF0000E38
:10FC38004E6E8350D8B423EF7EF025EF7EF027EF89
:10FC48007EF0010E4E6E4EC05BF099EF7EF0000E16
:10FC58004F6E8350D8B433EF7EF035EF7EF037EF38
:10FC68007EF0010E4F6E4FC05BF099EF7EF0000EF4
:10FC7800506E8350D8B443EF7EF045EF7EF047EFE7
:10FC88007EF0010E506E50C05BF099EF7EF0000ED2
:10FC9800516E8350D8B453EF7EF055EF7EF057EF96
:10FCA8007EF0010E516E51C05BF099EF7EF0000EB0
:10FCB800526E8350D8B463EF7EF065EF7EF067EF45
:10FCC8007EF0010E526E52C05BF099EF7EF041C09B
:10FCD8003DF042C03EF03E50000AD8B476EF7EF0C8
:10FCE80099EF7EF03D50000AD8B4EBEF7DF0010AA1
:10FCF800D8B4FBEF7DF0030AD8B40BEF7EF0010A0D
:10FD0800D8B41BEF7EF0070AD8B42BEF7EF0010AB7
:10FD1800D8B43BEF7EF0030AD8B44BEF7EF0010A6B
:10FD2800D8B45BEF7EF099EF7EF05B50D5EC72F0C3
:10FD3800B2EF7DF0BCEC72F0B2EF7DF0570E5F18B9
:10FD4800D8A4A9EF7EF0ABEF7EF09EEF7EF0440ED4
:10FD58006018D8A4B2EF7EF0B4EF7EF0C5EF7FF064
:10FD680061C043F0446A62C05CF05D6A94EF7FF062
:10FD7800000E536E5C505D10D8B4C5EF7EF0C7EF2F
:10FD88007EF0D0EF7EF083A0CCEF7EF0CEEF7EF059
:10FD9800D0EF7EF0010E536E53B002D0839001D0A5
:10FDA8008380C2EF7FF0000E546E5C505D10D8B4B3
:10FDB800E0EF7EF0E2EF7EF0EBEF7EF083A2E7EF7C
:10FDC8007EF0E9EF7EF0EBEF7EF0010E546E54B05A
:10FDD80002D0839201D08382C2EF7FF0000E556E6D
:10FDE8005C505D10D8B4FBEF7EF0FDEF7EF006EFBF
:10FDF8007FF083A402EF7FF004EF7FF006EF7FF03F
:10FE0800010E556E55B002D0839401D08384C2EFA1
:10FE18007FF0000E566E5C505D10D8B416EF7FF080
:10FE280018EF7FF021EF7FF083A61DEF7FF01FEF23
:10FE38007FF021EF7FF0010E566E56B002D0839608
:10FE480001D08386C2EF7FF0000E576E5C505D10C4
:10FE5800D8B431EF7FF033EF7FF03CEF7FF083A829
:10FE680038EF7FF03AEF7FF03CEF7FF0010E576EEE
:10FE780057B002D0839801D08388C2EF7FF0000E7C
:10FE8800586E5C505D10D8B44CEF7FF04EEF7FF0A9
:10FE980057EF7FF083AA53EF7FF055EF7FF057EFCE
:10FEA8007FF0010E586E58B002D0839A01D0838A31
:10FEB800C2EF7FF0000E596E5C505D10D8B467EF4A
:10FEC8007FF069EF7FF072EF7FF083AC6EEF7FF029
:10FED80070EF7FF072EF7FF0010E596E59B002D0CB
:10FEE800839C01D0838CC2EF7FF0000E5A6E5C5069
:10FEF8005D10D8B482EF7FF084EF7FF08DEF7FF054
:10FF080083AE89EF7FF08BEF7FF08DEF7FF0010EEE
:10FF18005A6E5AB002D0839E01D0838EC2EF7FF012
:10FF280043C03DF044C03EF03E50000AD8B49FEFB5
:10FF38007FF0C2EF7FF03D50000AD8B4BCEF7EF0EE
:10FF4800010AD8B4D7EF7EF0030AD8B4F2EF7EF0F6
:10FF5800010AD8B40DEF7FF0070AD8B428EF7FF074
:10FF6800010AD8B443EF7FF0030AD8B45EEF7FF0FC
:10FF7800010AD8B479EF7FF0C2EF7FF0530ED5ECC9
:10FF880072F0500E6018D8A4CCEF7FF0CEEF7FF05F
:10FF9800FCEF7FF061C045F0466A62C047F0486AEE
:10FFA80045C001F046C002F0000E046E0A0E036E52
:10FFB800EBEC72F047500124496E485002204A6E1B
:10FFC80049C001F04AC002F0000E02BEFF0E036EE7
:10FFD800046E010E80EC76F001C033F002C034F0FC
:10FFE80003C035F004C036F022EC75F0B2EF7DF0B6
:08FFF800B2EF7DF000EF00F014
:020000040020DA
:08000000FFFFFFFFFFFFFFFF00
:020000040030CA
:0E000000FF071F1FFF8385FF0FC00FE00F409B
:00000001FF
